:020000020000FC
:0200000029C015
:100054000FE50DBF04E00EBF0E94970008E40E9464
:100064007D0005E60E947D000CE60E947D000E9452
:100074007D000FE60E947D0000E20E947D0007E5FE
:100084000E947D000FE60E947D0002E70E947D0031
:100094000CE60E947D0004E60E947D0001E20E94BD
:1000A4007D000DE80E948A0003D000000000FDCF0F
:1000B4000F930BE00F930FEE0A95F1F70F910A954A
:1000C400C9F70F9108950F930FEF0A9500000000F0
:1000D400E1F70F9108950F9300E004BBC298C19A11
:1000E400E7DFC09AE5DF03B3C09807FDF9CFC198F5
:1000F400C2980F9108951F93EEDFC198C29A1FEF23
:1001040014BB05BBC09AC098112714BB1F91089556
:100114001F93E1DFC198C2981FEF14BB05BBC09ABF
:10012400C098112714BB1F9108950F93002704BB97
:1001340005BBBA9AB89AC29AC09AB99A08E3E8DF9A
:100144000CE0E6DF06E0E4DF01E0E2DF0F91089572
:00000001FF
