:020000020000FC
:0200000029C015
:0C002C000C9469000C9467000C946800B0
:04004C000C9476009A
:1000540004E00EBF0FE50DBF222420E030E00E9433
:100064004A000E945F000E943D000E94450078946F
:1000740000000000FDCF00EF01BB01E0302E0BBFFC
:1000840002E005BF089500EB0CBF02E009BF08952C
:10009400A0E6B0E0C0E0D0E0DFBBCEBBE09A0DB399
:1000A4000D932196DFBBCEBBE09A0DB30D93219641
:1000B4000030C1F700E00D93089503E310E010BD94
:1000C40009B9549A539A579A0895189518950CB1EA
:1000D4000D3039F00CB91AE0319F302D0053300F38
:1000E40018950DE003BF18954395403151F4422D06
:1000F4000E948400231729F400E003BF20E030E0CD
:100104004BE0189533942395A0E6B0E0A30DB21DFF
:100114001C91103019F411E0312EF6CF02B30F7098
:06012400012B02BB08954F
:00000001FF
