:020000020000FC
:0200000029C015
:100054000FE50DBF04E00EBF0E948B0008E40E9470
:10006400710005E60E9471000CE60E9471000E9476
:1000740071000FE60E9471000DE80E947E000CD012
:1000840002E40E94710009E70E94710005E60E94E3
:10009400710000000000FDCF0F930BE00F930FEEF3
:1000A4000A95F1F70F910A95C9F70F9108950F93E7
:1000B4000FEF0A9500000000E1F70F9108950F93E8
:1000C40000E004BBC298C19AE7DFC09AE5DF03B33E
:1000D400C09807FDF9CFC198C2980F9108951F9356
:1000E400EEDFC198C29A1FEF14BB05BBC09AC0983B
:1000F400112714BB1F9108951F93E1DFC198C29883
:100104001FEF14BB05BBC09AC098112714BB1F91E5
:1001140008950F93002704BB05BBBA9AB89AC29AF4
:10012400C09AB99A08E3E8DF0CE0E6DF06E0E4DF12
:0801340001E0E2DF0F910895E4
:00000001FF
