:020000020000FC
:0200000029C015
:02002C0037C0DB
:0200300026C0E8
:0200340025C0E5
:100054000FE50DBF04E00EBF0E9437000FEF07BB92
:1000640008BB789400000000FDCF03E310E010BD4E
:1000740009B9549A539A579A089518953395E0E616
:10008400F0E0E30F08F4F3950081003011F00CB9AF
:100094001895579AC09A18950CB1C0980E945300AD
:1000A40018953327E0E6F0E008E4019305E60193B0
:1000B4000CE601930CE601930FE6019300E0019333
:0E00C400E0E6F0E000810CB9569A57980895D6
:00000001FF
