:020000020000FC
:080000000C942A000C94680026
:040024000C946000D8
:04004C000C946100AF
:100054000FE50DBF04E00EBF0E9438000E94560059
:100064000E944F00789400000000FDCFA0E6B0E0AD
:1000740000E00D9300E10D9300E30D9300E20D9376
:1000840000E60D9300E40D9300EC0D9300E80D934E
:1000940000E90D9300E00D93089508EF0CBF02E012
:1000A40009BF0DE003BF089500EF01BB01E0102E6E
:1000B400929A00E40BBF02E005BF089518953395AA
:1000C400303119F4302D0E94690018951895139455
:1000D400A0E6B0E0A10DB01D1C91103019F411E0A0
:0E00E400112EF6CF02B30F70012B02BB089550
:00000001FF
