:020000020000FC
:0200000029C015
:020004004DC0ED
:020008005DC0D9
:020018005CC0CA
:100054000FE50DBF04E00EBF06D00ED01AD0789481
:1000640000000000FDCF00E00BBB0FEF0ABB00E077
:1000740001BB929A939A0895002700E109BF0027D3
:100084000DBD0CBD00E01EE40BBD1ABD05E00EBDA8
:10009400089500E40BBF0AE005BF089500E80BBF14
:1000A400D89A00E61FEF2FEF2A952030E9F71A952A
:1000B400D1F70A95B9F7D99AD89805E00EBD1895E5
:1000C40000E00EBD00E40BBF4BBBDF9A18953395DF
:1000D400343609F002C0439530E000E00DBD0CBD9C
:0600E40005E00EBD1895B9
:00000001FF
