:020000020000FC
:0200000029C015
:080004000C9472000C947C00C6
:04002C000C9415011A
:040034000C942901FE
:04004C000C947E0191
:040010000C948600C6
:040038000C94EB0237
:040018000C948A00BA
:040020000C948E00AE
:100054000FE50DBF04E00EBF222450E0B0E0A6EA95
:100064005C930E94D3000E9433010E94F9000E9415
:100074004B010E9447000E9402010E94EF02789403
:10008400000000000000A895FBCF01B3007F01BB76
:100094000EE70ABB02B3007F0C6002BB0AE005BF97
:1000A40009B7037C046109BF089500EC0BBF0ABFC4
:1000B40008952BBE08952FBC01E00EBD1FE2139FCF
:1000C400010E121C1BBC0ABCB0E0A0E636953E77BC
:1000D4003C9308952FBC2EBC0BB301780BBB089541
:1000E4000E94A8012BBE09B70F72006409BF05E086
:1000F40005BD18950E94AB012BBE09B70F720064B1
:1001040009BF05E005BD189525BC24BCCEDF1895B4
:100114000BB301780BBB1895B0E0A0E60C911BB3B0
:100124001178012B0BBB18950F930BE00F930FEE77
:100134000A95F1F70F910A95C9F70F9108950F9356
:100144000FEF0A9500000000E1F70F9108950F9357
:1001540000E004BBC298C19AE7DFC09AE5DF03B3AD
:10016400C09807FDF9CFC198C2980F9108951F93C5
:10017400EEDFC198C29A1FEF14BB05BBC09AC098AA
:10018400112714BB1F9108951F93E1DFC198C298F2
:100194001FEF14BB05BBC09AC098112714BB1F9155
:1001A40008950F93002704BB05BBBA9AB89AC29A64
:1001B400C09AB99A08E3E8DF0EE0E6DF06E0E4DF80
:1001C40001E0E2DF0F91089510E0103119F400EC22
:1001D4000E94C6000D91003021F00E94B9001395D1
:1001E400F4CF0895C098C19801E0CEDF089503E3E9
:1001F40010E010BD09B9549A539A579A569A089523
:10020400F4E0E0E505910CB90895F5E0E4EB05911F
:100214000CB90895F5E0E6EB05910CB908955E9BE1
:10022400FECF5E9A0895B0E0A6EA0CB10E3251F00A
:100234000CB9F5DF2C911AE0219F202D0053200FDB
:100244002C9318955C912C920E94B30118950591FA
:10025400003009F00CB918950D91003009F00CB973
:100264001895B0E0A1E6D0E0C0E00E944201B0E001
:10027400A5E70E944201B0E0A9E80E944201089566
:10028400DFBBCEBBE09A0DB30D9321960030C1F7CE
:10029400089501B30F7010EF012B01BB02B30F706F
:1002A400006102BB3324F3E0ECE50E94690101D054
:1002B400089509B70C7F026009BF0CE90CBF00E088
:1002C40002BF0895522C622D04E003BF0895B0E0EC
:1002D400ADE905910D930030E1F70895340C07E082
:1002E40030226395B0E0ADE9A30DB21D1C9102B3B9
:1002F4000F70012B02BB089523BE5394541649F486
:10030400522CECDF631729F460E0522C0E941D028A
:10031400189522BE04E003BF189509B70C7F09BFE6
:1003240002B30F7002BB089509B70370602E017009
:100334006694602A0895BDDFB0E0ADE9A30DB21D57
:100344001C9102B30F70012B02BB089522BE23BE81
:10035400089504E003BF08951030206040C08090E9
:1003640000000E940C01B1E0AEEB052F000FA00FBE
:10037400B21DAF93BF93089517D0089518D0089570
:100384001BD008951ED0089521D0089524D0089537
:1003940026D0089528D008952AD008952ED00895FF
:1003A40032D0089534D008950E940201089501E0E6
:1003B400402E3AE044E62FC00FEF402E3AE044E6E8
:1003C4002AC002E0402E30E549E125C00EEF402E60
:1003D40030E549E120C050E00E948F01089550E0CB
:1003E4000E949D01089550E00E94E202089550E0A9
:1003F4000E94E7020E946C00089550E0B0E0A9E872
:100404000E94E600089550E00E94F4000895000060
:100414000000FDCF08950E94960160FE089554984F
:100424000E9407010E9457000E9464010895362D1E
:100434000E945D00089550E0549A93DF0E945B008F
:10044400089550E0549A0E940C0108950C50726F64
:100454006A656374205461736B733A200D0A2D2D01
:100464002D2D2D2D2D2D2D2D2D2D2D2D0D0A3129FB
:1004740020526F7461746520636C6F636B7769736A
:100484006520666F722035207365636F6E64732018
:100494000D0A322920526F7461746520616E74698B
:1004A4002D636C6F636B7769736520666F7220359B
:1004B400207365636F6E64730D0A332920526F7461
:1004C40061746520636C6F636B7769736520666F15
:1004D40072203130207365636F6E64730D0A3429A2
:1004E40020526F7461746520616E74692D636C6F42
:1004F400636B7769736520666F7220313020736592
:10050400636F6E6473200D0A352920446973616238
:100514006C6520737465707065720D0A3629204508
:100524006E61626C652073746570706572200D0A6B
:100534003729205374617274204144432050574D2D
:10054400207461736B200D0A38292053746F702056
:100554004144432050574D207461736B0D0A39296F
:10056400205072696E74203372642073746F7265E4
:1005740064206D65737361676520746F204C434418
:100584000D0A31302920436C656172204C434420AC
:100594000D0A313129205265736574204D696372E7
:1005A4006F636F6E74726F6C6C6572200D0A00005D
:1005B4000C000D202020202020202020200D0000D1
:1005C40000E607B90FEC06B9089500E007B900E0AA
:1005D40006B965B00E94190218950AE001BD089594
:00000001FF
