:020000020000FC
:0200000029C015
:080004000C9444000C9445002B
:04002C000C94AD0083
:040034000C94C10067
:04004C000C941801F7
:040024000C942B010C
:1000540024E02EBF2FE52DBF222450E0B0E0A0E61F
:100064005C930E94CB000E949A000E94E4000E94CC
:1000740046000E9487000E94A300789400000000BC
:100084000000FCCF1895189520EF21BB2CE022BB73
:100094000F930BE00F930FEE0A95F1F70F910A956A
:1000A400C9F70F9108950F930FEF0A950000000010
:1000B400E1F70F9108950F9300E004BBC298C19A31
:1000C400E7DFC09AE5DF03B3C09807FDF9CFC19815
:1000D400C2980F9108951F93EEDFC198C29A1FEF43
:1000E40014BB05BBC09AC098112714BB1F91089577
:1000F4001F93E1DFC198C2981FEF14BB05BBC09AE0
:10010400C098112714BB1F9108950F93002704BBB7
:1001140005BBBA9AB89AC29AC09AB99A08E3E8DFBA
:100124000EE0E6DF06E0E4DF01E0E2DF0F91089590
:1001340023E330E030BD29B9549A539A579A569A1A
:100144000895F3E0EEE525912CB90895F4E0E2EC8E
:1001540025912CB90895B0E0A0E62CB12E3251F0CF
:100164002CB94C913AE0439F402D2053220F420F6B
:100174004C9318955C912C920E944C0118952591F2
:10018400203009F02CB918952D91203009F02CB9A4
:100194001895D0E0C0E0B0E0A1E60BD0D0E0C1E11A
:1001A400B0E0A5E706D0D0E0CDE1B0E0A9E801D009
:1001B4000895DFBBCEBBE09A2DB32D93219620305A
:1001C400C1F7089521B32F7030EF232B21BB22B345
:1001D4002F7030E1232B22BB332405D0F2E0EEE86C
:1001E4000E940301089529B72C7F226029BF2CE9BE
:1001F4002CBF20E022BF0895522C622D24E023BF9F
:100204000895B0E0ADE925912D932030E1F70895EC
:10021400340C27E032226395B0E0ADE9A30DB21DA2
:100224003C9122B32F70232B22BB089520E023BFDF
:100234005394511649F4522CEBDF601729F460E013
:10024400522C0E947101189520E022BF24E023BFA4
:10025400189520E023BF22E028BF0E947101189561
:1002640029B72C7F216029BF22B32F7022BB0895A8
:10027400BADFB0E0ADE9A30DB21D3C9140E0341605
:1002840009F430E1232B22BB08951030206040C0D4
:1002940080900000B1E0A3E5A50FB21DAF93BF931A
:1002A400089521D0089522D008952AD0089532D0F7
:1002B40008953AD0089542D008950E94A501089562
:1002C4000E94AA0108950E94AB0108950E94AC0106
:1002D40008950E94AD0108950E94AE010895549AB4
:1002E40050E0D8DF08950E94A300089554980E9416
:1002F400A80021E0422E0AE014E60E94FE000895C0
:1003040054980E94A8002FEF422E0AE014E60E949F
:10031400FE00089554980E94A80022E0422E00E5B1
:1003240019E10E94FE00089554980E94A8002EEF3F
:10033400422E00E519E10E94FE0008950E94320158
:1003440050E0CDDF08950E943A0150E0C8DF0895DF
:10035400089508950895089508950C50726F6A657C
:100364006374205461736B733A200D0A2D2D2D2D67
:100374002D2D2D2D2D2D2D2D2D2D0D0A31292052D4
:100384006F7461746520636C6F636B776973652048
:10039400666F722035207365636F6E6473200D0A77
:1003A400322920526F7461746520616E74692D6303
:1003B4006C6F636B7769736520666F722035207389
:1003C40065636F6E64730D0A332920526F74617410
:1003D4006520636C6F636B7769736520666F722049
:1003E4003130207365636F6E64730D0A34292052B3
:1003F4006F7461746520616E74692D636C6F636BD7
:100404007769736520666F72203130207365636F7E
:100414006E6473200D0A35292044697361626C652A
:1004240020737465707065720D0A362920456E61FB
:10043400626C652073746570706572200D0A3729CB
:10044400205374617274204144432050574D2074EA
:1004540061736B200D0A38292053746F7020414456
:10046400432050574D207461736B0D0A3929205075
:1004740072696E74203372642073746F72656420C1
:100484006D65737361676520746F204C43440D0A76
:1004940031302920436C656172204C4344200D0A9D
:1004A400313129205265736574204D6963726F631D
:1004B4006F6E74726F6C6C6572200D0A00000C0014
:00000001FF
