:020000020000FC
:0200000029C015
:080004000C944D000C94570010
:04002C000C94CA0066
:040034000C94DE004A
:04004C000C943501DA
:040024000C944601F1
:040010000C946100EB
:1000540024E02EBF2FE52DBF222450E0B0E0A0E61F
:100064005C930E94E8000E94B7000E9401010E9474
:1000740044000E94A4000E94C00078940000000084
:100084000000FCCF20EF21BB2CE022BB20EC2BBFD7
:1000940022E025BF08950E9461012BBE29B72F726B
:1000A400206429BF25E025BD18950E9464012BBE5C
:1000B40029B72F72206429BF25E025BD189525BCDA
:1000C40024BC20EC2ABF2BBF18950F930BE00F9391
:1000D4000FEE0A95F1F70F910A95C9F70F9108955C
:1000E4000F930FEF0A9500000000E1F70F910895B8
:1000F4000F9300E004BBC298C19AE7DFC09AE5DF22
:1001040003B3C09807FDF9CFC198C2980F91089521
:100114001F93EEDFC198C29A1FEF14BB05BBC09AB0
:10012400C098112714BB1F9108951F93E1DFC19854
:10013400C2981FEF14BB05BBC09AC098112714BB0B
:100144001F9108950F93002704BB05BBBA9AB89A70
:10015400C29AC09AB99A08E3E8DF0EE0E6DF06E047
:10016400E4DF01E0E2DF0F91089523E330E030BDE6
:1001740029B9549A539A579A569A0895F3E0EEE996
:1001840025912CB90895F5E0E2E025912CB9089564
:10019400B0E0A0E62CB12E3251F02CB94C913AE0EB
:1001A400439F402D2053220F420F4C9318955C918E
:1001B4002C920E946C0118952591203009F02CB9DD
:1001C40018952D91203009F02CB91895D0E0C0E095
:1001D400B0E0A1E60BD0D0E0C1E1B0E0A5E706D0E5
:1001E400D0E0CDE1B0E0A9E801D00895DFBBCEBBFB
:1001F400E09A2DB32D9321962030C1F7089521B3B1
:100204002F7030EF232B21BB22B32F7030E1232B2F
:1002140022BB332405D0F2E0EEEC0E9420010895C5
:1002240029B72C7F226029BF2CE92CBF20E022BFF4
:100234000895522C622D24E023BF0895B0E0ADE967
:1002440025912D932030E1F70895340C27E03222D4
:100254006395B0E0ADE9A30DB21D3C9122B32F70BC
:10026400232B22BB089523BE5394511649F4522CD8
:10027400ECDF601729F460E0522C0E94910118957C
:1002840022BE24E023BF189523BE22E028BF0E948B
:100294009101189529B72C7F216029BF22B32F70B3
:1002A40022BB0895BDDFB0E0ADE9A30DB21D3C91C2
:1002B40040E0341609F430E1232B22BB089522BE1A
:1002C40023BE089524E023BF08951030206040C069
:1002D40080900000B1E0A3E7A50FB21DAF93BF93D8
:1002E400089521D0089522D008952AD0089532D0B7
:1002F40008953AD0089542D008950E94C501089502
:100304000E94CA0108950E94CB0108950E94CC0165
:1003140008950E94CD0108950E94CE010895549A33
:1003240050E0D8DF08950E94C000089554980E94B8
:10033400C50021E0422E0AE014E60E941B01089544
:1003440054980E94C5002FEF422E0AE014E60E9442
:100354001B01089554980E94C50022E0422E00E536
:1003640019E10E941B01089554980E94C5002EEFC4
:10037400422E00E519E10E941B0108950E944C01E0
:1003840050E0CDDF08950E94540150E0C8DF089585
:10039400089508950895089508950C50726F6A653C
:1003A4006374205461736B733A200D0A2D2D2D2D27
:1003B4002D2D2D2D2D2D2D2D2D2D0D0A3129205294
:1003C4006F7461746520636C6F636B776973652008
:1003D400666F722035207365636F6E6473200D0A37
:1003E400322920526F7461746520616E74692D63C3
:1003F4006C6F636B7769736520666F722035207349
:1004040065636F6E64730D0A332920526F746174CF
:100414006520636C6F636B7769736520666F722008
:100424003130207365636F6E64730D0A3429205272
:100434006F7461746520616E74692D636C6F636B96
:100444007769736520666F72203130207365636F3E
:100454006E6473200D0A35292044697361626C65EA
:1004640020737465707065720D0A362920456E61BB
:10047400626C652073746570706572200D0A37298B
:10048400205374617274204144432050574D2074AA
:1004940061736B200D0A38292053746F7020414416
:1004A400432050574D207461736B0D0A3929205035
:1004B40072696E74203372642073746F7265642081
:1004C4006D65737361676520746F204C43440D0A36
:1004D40031302920436C656172204C4344200D0A5D
:1004E400313129205265736574204D6963726F63DD
:1004F4006F6E74726F6C6C6572200D0A00000C00D4
:00000001FF
