:020000020000FC
:0C0000000C942A000C9445000C944D0058
:040024000C943E00FA
:100054000FE50DBF04E00EBF04D07894000000004B
:10006400FDCF00EF01BB00E1102E929A939A00ECB1
:100074000BBF0AE005BF089503BE02BE00E40ABF39
:1000840000EC0BBF18950E9455000BBE01E009BFA0
:1000940005E003BF18950E945E000BBE01E009BF96
:1000A40005E003BF189502B30F70110C11F410E1B1
:1000B400112E012902BB089502B30F70169410EF9C
:0E00C400112111F410E8112E012902BB08953C
:00000001FF
