:020000020000FC
:0C0000000C942A000C944C000C945A0044
:040024000C944800F0
:04004C000C944900C7
:1000540004E00EBF0FE50DBF0E943D000E94360074
:10006400789400000000FDCF00E60CBF02E009BF59
:100074000DE003BF089500EF01BB00E1102E929A3A
:10008400939A00EC0BBF0AE005BF089518950E94EF
:10009400510018950DE013B7012703BF189502B35B
:1000A4000F70110C11F410E1112E012902BB0895F7
:1000B40000E010E103BF0CB7003F09F400E5010FB5
:0800C4000CBF0DE003BF18950D
:00000001FF
