:020000020000FC
:0200000029C015
:02002C0064C0AE
:02003400AEC05C
:040018000C94D5006F
:040024000C94F50043
:040010000C94060145
:04000C000C9403014C
:040038000C9408011B
:100054000FE50DBF04E00EBF20E00E9468000E947F
:10006400710030E0A4E7B0E0C0E0D0E00E94EC0012
:100074000E947A010E9446000E94B7000E94E70095
:10008400789400000000FDCFA8E8B0E001E00D93F3
:1000940002E00D9304E00D9308E00D9300E10D934D
:1000A40000E20D9300E40D9300E20D9300E10D9343
:1000B40008E00D9304E00D9302E00D9301E00D932D
:1000C40000E00D930AE0D02ED3BC089503E310E0C2
:1000D40010BD09B9549A539A579A569A089500EF45
:1000E40001BB0895A0E6B0E005910D930030E1F75F
:1000F40008950CB1013339F00233A9F0033319F137
:10010400043359F1189531E0E6E1F2E00E947400FD
:10011400A0E6B0E00D9102BB06E00BBD0BE10ABD09
:100124000E94E000189532E0E2E2F2E00E947400DE
:10013400A0E6B0E00D9102BB03E00BBD0DE00ABDEB
:100144000E94E000189533E0A4E7B0E00D91003080
:1001540019F00E946001FACF1895D09AD89A34E029
:10016400A4E7B0E00D910CB9189505E0F02E0FEF5F
:100174000ABBA8E8B0E001EC09BF05E003BF24BD59
:1001840003E005BD07E607B90FEF06B9189534304B
:1001940029F00591003009F00CB918950D91003043
:1001A40009F00CB91895D09AD89A0D91003011F035
:1001B40002BB1895A0E6B0E00D91FACF2DBD2CBD81
:1001C40000E109BF0DE00EBD0895E2E3F2E0059100
:1001D4000CB90895DFBBCEBBE09A0DB30D93219605
:1001E4000030C1F70895FA9409F0189505E0F02E4F
:1001F4000D91003019F4A8E8B0E00D91E02E0BBB8E
:100204001895D3BC2BBB1895EBBA189505B1D02E15
:10021400189510204080000080402010000010300D
:10022400206040C0800080C04060203010000C6D11
:10023400656E7520666F72207461736B73200D0A8E
:1002440031207461736B20310D0A32207461736B39
:1002540020320D0A33207461736B20330D0A34206D
:100264007461736B20340D0A35207461736B20350F
:10027400200D0A000C000F930BE00F930FEE0A956C
:10028400F1F70F910A95C9F70F9108950F930FEFA6
:100294000A9500000000E1F70F9108950F9300E024
:1002A40004BBC298C19AE7DFC09AE5DF03B3C098E4
:1002B40007FDF9CFC198C2980F9108951F93EEDFFF
:1002C400C198C29A1FEF14BB05BBC09AC0981127EE
:1002D40014BB1F9108951F93E1DFC198C2981FEFCB
:1002E40014BB05BBC09AC098112714BB1F91089575
:1002F4000F93002704BB05BBBA9AB89AC29AC09A56
:10030400B99A08E3E8DF0CE0E6DF06E0E4DF01E0A9
:06031400E2DF0F910895E5
:00000001FF
