:020000020000FC
:040000000C942A0032
:040024000C944F00E9
:04004C000C944D00C3
:020004004EC0EC
:020008005AC0DC
:100054000FE50DBF04E00EBF07D018D001E00CBFC0
:10006400789400000000FDCFD09ABB9AD898C3982A
:10007400002701BB929A939ABA98C29A0BBB0FEFCE
:100084000ABB09E005BF00EE0BBF089503E009BFFA
:100094000BE703BF0895D8981895D89A18950F932D
:1000A4000FB70F930CB718E0010F10F408508894A1
:1000B4000CBF0F910FBF0F9118950F930FB70F93AC
:1000C40088940CB7085010F4085F88940CBF0F9103
:0600D4000FBF0F9118950B
:00000001FF
