:020000020000FC
:0200000029C015
:100054000FE50DBF04E00EBF0E949500A0E6B0E0DE
:10006400C0E0D0E00E944A00A4E7B0E0E0E5F1E09F
:100074000E945300A0E6B0E00E944300000000008C
:10008400FDCF0D91003019F00E947B00FACF089546
:10009400DFBBCEBBE09A0DB30D9321960030C1F7C0
:1000A400089505910D930030E1F708950F930BE047
:1000B4000F930FEE0A95F1F70F910A95C9F70F9177
:1000C40008950F930FEF0A9500000000E1F70F91D8
:1000D40008950F9300E004BBC298C19AE7DFC09A69
:1000E400E5DF03B3C09807FDF9CFC198C2980F911B
:1000F40008951F93EEDFC198C29A1FEF14BB05BB8E
:10010400C09AC098112714BB1F9108951F93E1DF73
:10011400C198C2981FEF14BB05BBC09AC0981127A1
:1001240014BB1F9108950F93002704BB05BBBA9A13
:10013400B89AC29AC09AB99A08E3E8DF0CE0E6DFFD
:1001440006E0E4DF01E0E2DF0F910895504D2D68F1
:0C015400656C6C6F20776F726C640000AB
:00000001FF
