:020000020000FC
:0200000029C015
:02002C002AC0E8
:100054000FE50DBF04E00EBF00E0002E202F0E942C
:1000640039000E949600789400000000FDCF03E35D
:1000740010E010BD09B9549A919A579A08950CB199
:100084000A3269F02F3079F023952BBBA0E6B0E05B
:10009400A20FB01D0C930C910E947C001895D79A66
:1000A400DF9A202D1895D69ADE9A202D18950F9355
:1000B4000BE00F930FEE0A95F1F70F910A95C9F72C
:1000C4000F9108950F930FEF0A9500000000E1F7D8
:1000D4000F9108950F9300E004BBC298C19AE7DF23
:1000E400C09AE5DF03B3C09807FDF9CFC198C29861
:1000F4000F9108951F93EEDFC198C29A1FEF14BBAE
:1001040005BBC09AC098112714BB1F9108951F9373
:10011400E1DFC198C2981FEF14BB05BBC09AC09819
:10012400112714BB1F9108950F93002704BB05BB2F
:10013400BA9AB89AC29AC09AB99A08E3E8DF0CE06E
:0E014400E6DF06E0E4DF01E0E2DF0F91089560
:00000001FF
