:020000020000FC
:040000000C942A0032
:04002C000C94B2007E
:040034000C94AD007B
:040010000C944D01FE
:040018000C943C0107
:04004C000C943801D7
:040024000C943A01FD
:040038000C9416010D
:080004000C9447000C944B0022
:100054000FE50DBF04E00EBF00E0202E0095302E0A
:100064000E945D010E94A3000E9457010E949E000D
:100074000E9454000E945C020AE005BF00EC0BBF22
:100084007894000000000000FCCF75E525BC2EBC70
:100094001895753509F01895722D05E00EBD07E029
:1000A40005BD18958C9A8D9A8E9A8F9A949A50E1E0
:1000B40041E0B0E0A1EB00E00D9300E10D9300E21C
:1000C4000D9300E40D9300E80D9300E00D93089563
:1000D400E4E4F6E0B0E0A1EB05910D9305910D93F6
:1000E40005910D9305910D9305910D9305910D9334
:1000F4000895621419F0631481F008954395B0E0F3
:10010400A1EBA40FB21D0C91003011F0502F0895F3
:10011400B0E0A2EB5C9141E008954A95B0E0A1EB18
:10012400A40FB21D0C91003011F0502F0895B0E0CF
:10013400A5EB5C9144E0089500EF01BB0CE002BB29
:10014400089503E310E010BD09B9549A539A579ADD
:10015400569A60E008950591003009F00CB918959D
:10016400CCEAD0E0C60FC21D0CB1088363950E32F1
:1001740029F0633009F0189560E01895CCEAD0E0D6
:1001840009810E3229F00A810E32F9F40C94DF0051
:1001940008810133E1F00233F1F0033301F1043358
:1001A40011F1053321F1063331F1073341F10833FD
:1001B40051F1093361F10C94E7000881013329F40A
:1001C4000981003341F1013351F1622D18950E94E8
:1001D4007B010C94E7000E9498010C94E7000E94B4
:1001E400B4010C94E7000E94D0010C94E7000E9433
:1001F400EC010C94E7000E94F1010C94E7000E94CA
:10020400F9010C94E7000E94FE010C94E7000E949F
:1002140001020C94E7000E9406020C94E7000E947D
:100224000A020C94E700089505B1102F169516954F
:100234001CBF322D023180F03260043268F0366027
:10024400063350F03E60083438F03E630A3520F03F
:100254003E670C3608F03E6F0EEF0ABB3BBB22BE76
:1002640009B7036009BF03E003BF18952BBA1895BB
:100274003BBB1895439400E00EBD2DBC2CBC45142B
:1002840019F005E00EBD189500E00EBD05BD0E94F5
:100294005701579A18959A9439F4982C0E947B0028
:1002A40002B30F70052B02BB1895569AEEEDF4E0DD
:1002B40005910CB90895A0E0B0E0C0E7D0E00E9439
:1002C4006C01C4E8D0E00E946C01C8E9D0E00E944F
:1002D4006C010895E199FECFBFBBAEBBE09A1DB39C
:1002E400199311961030B1F7089557980CE00CB992
:1002F40008958F3FD1F0622C422C04E0502E04E884
:100304001EE10ABD1BBD2CBC2DBC09B7006109BF91
:1003140005E00EBD05E0802E982C09B7006409BFE6
:1003240007E005BD0E947701089508958F3FE9F322
:10033400632C422C04E0502E04E81EE10ABD1BBDD0
:100344002CBC2DBC09B7006109BF05E00EBD05E05A
:10035400802E982C09B7006409BF07E005BD0E94F0
:10036400770108958F3F09F3622C422C08E0502E48
:1003740004E81EE10ABD1BBD2CBC2DBC09B70061FD
:1003840009BF05E00EBD02E0802E982C09B7006479
:1003940009BF07E005BD0E94770108958F3F29F248
:1003A400632C422C08E0502E04E81EE10ABD1BBD5C
:1003B4002CBC2DBC09B7006109BF05E00EBD02E0ED
:1003C400802E982C09B7006409BF07E005BD0E9480
:1003D40077010895832D0CE021BA02BB0895822D84
:1003E40000EF01BB02B30F70052B02BB089500E6BA
:1003F40007B90FED06B9089523BE2BBA0895C8E9CD
:10040400D0E00E940F02089501E00E944F02089577
:1004140008E001BD0000FECF089510E00991139596
:10042400003051F00E944202103109F0F7CF00EC85
:100434000E944F0202D0F2CF08950F930BE00F9366
:100444000FEE0A95F1F70F910A95C9F70F910895E8
:100454000F930FEF0A9500000000E1F70F91089544
:100464000F9300E004BBC298C19AE7DFC09AE5DFAE
:1004740003B3C09807FDF9CFC198C2980F910895AE
:100484001F93EEDFC198C29A1FEF14BB05BBC09A3D
:10049400C098112714BB1F9108951F93E1DFC198E1
:1004A400C2981FEF14BB05BBC09AC098112714BB98
:1004B4001F9108950F93002704BB05BBBA9AB89AFD
:1004C400C29AC09AB99A08E3E8DF0CE0E6DF06E0D6
:1004D400E4DF01E0E2DF0F9108950C50726F6A656A
:1004E4006374205461736B733A200D0A2D2D2D2DE6
:1004F4002D2D2D2D2D2D2D2D2D2D0D0A3129205253
:100504006F7461746520636C6F636B7769736520C6
:10051400666F722035207365636F6E6473200D0AF5
:10052400322920526F7461746520616E74692D6381
:100534006C6F636B7769736520666F722035207307
:1005440065636F6E64730D0A332920526F7461748E
:100554006520636C6F636B7769736520666F7220C7
:100564003130207365636F6E64730D0A3429205231
:100574006F7461746520616E74692D636C6F636B55
:100584007769736520666F72203130207365636FFD
:100594006E6473200D0A35292044697361626C65A9
:1005A40020737465707065720D0A362920456E617A
:1005B400626C652073746570706572200D0A37294A
:1005C400205374617274204144432050574D207469
:1005D40061736B200D0A38292053746F70204144D5
:1005E400432050574D207461736B0D0A39292050F4
:1005F40072696E74203372642073746F7265642040
:100604006D65737361676520746F204C43440D0AF4
:1006140031302920436C656172204C4344200D0A1B
:10062400313129205265736574204D6963726F639B
:100634006F6E74726F6C6C6572200D0A00000C0092
:10064400001020408000001030206040C0809000E6
:00000001FF
